{
  "_format": "hh-sol-artifact-1",
  "contractName": "GenesisGalleria",
  "sourceName": "contracts/Contract.sol",
  "abi": [
    {
      "inputs": [],
      "stateMutability": "nonpayable",
      "type": "constructor"
    },
    {
      "anonymous": false,
      "inputs": [
        {
          "indexed": true,
          "internalType": "address",
          "name": "owner",
          "type": "address"
        },
        {
          "indexed": true,
          "internalType": "address",
          "name": "approved",
          "type": "address"
        },
        {
          "indexed": true,
          "internalType": "uint256",
          "name": "tokenId",
          "type": "uint256"
        }
      ],
      "name": "Approval",
      "type": "event"
    },
    {
      "anonymous": false,
      "inputs": [
        {
          "indexed": true,
          "internalType": "address",
          "name": "owner",
          "type": "address"
        },
        {
          "indexed": true,
          "internalType": "address",
          "name": "operator",
          "type": "address"
        },
        {
          "indexed": false,
          "internalType": "bool",
          "name": "approved",
          "type": "bool"
        }
      ],
      "name": "ApprovalForAll",
      "type": "event"
    },
    {
      "anonymous": false,
      "inputs": [
        {
          "indexed": false,
          "internalType": "uint256",
          "name": "_fromTokenId",
          "type": "uint256"
        },
        {
          "indexed": false,
          "internalType": "uint256",
          "name": "_toTokenId",
          "type": "uint256"
        }
      ],
      "name": "BatchMetadataUpdate",
      "type": "event"
    },
    {
      "anonymous": false,
      "inputs": [
        {
          "indexed": false,
          "internalType": "uint256",
          "name": "_tokenId",
          "type": "uint256"
        }
      ],
      "name": "MetadataUpdate",
      "type": "event"
    },
    {
      "anonymous": false,
      "inputs": [
        {
          "indexed": true,
          "internalType": "address",
          "name": "previousOwner",
          "type": "address"
        },
        {
          "indexed": true,
          "internalType": "address",
          "name": "newOwner",
          "type": "address"
        }
      ],
      "name": "OwnershipTransferred",
      "type": "event"
    },
    {
      "anonymous": false,
      "inputs": [
        {
          "indexed": true,
          "internalType": "address",
          "name": "from",
          "type": "address"
        },
        {
          "indexed": true,
          "internalType": "address",
          "name": "to",
          "type": "address"
        },
        {
          "indexed": true,
          "internalType": "uint256",
          "name": "tokenId",
          "type": "uint256"
        }
      ],
      "name": "Transfer",
      "type": "event"
    },
    {
      "inputs": [
        {
          "internalType": "address",
          "name": "to",
          "type": "address"
        },
        {
          "internalType": "uint256",
          "name": "tokenId",
          "type": "uint256"
        }
      ],
      "name": "approve",
      "outputs": [],
      "stateMutability": "nonpayable",
      "type": "function"
    },
    {
      "inputs": [
        {
          "internalType": "address",
          "name": "owner",
          "type": "address"
        }
      ],
      "name": "balanceOf",
      "outputs": [
        {
          "internalType": "uint256",
          "name": "",
          "type": "uint256"
        }
      ],
      "stateMutability": "view",
      "type": "function"
    },
    {
      "inputs": [
        {
          "internalType": "uint256",
          "name": "tokenId",
          "type": "uint256"
        }
      ],
      "name": "getApproved",
      "outputs": [
        {
          "internalType": "address",
          "name": "",
          "type": "address"
        }
      ],
      "stateMutability": "view",
      "type": "function"
    },
    {
      "inputs": [
        {
          "internalType": "address",
          "name": "owner",
          "type": "address"
        },
        {
          "internalType": "address",
          "name": "operator",
          "type": "address"
        }
      ],
      "name": "isApprovedForAll",
      "outputs": [
        {
          "internalType": "bool",
          "name": "",
          "type": "bool"
        }
      ],
      "stateMutability": "view",
      "type": "function"
    },
    {
      "inputs": [
        {
          "internalType": "string",
          "name": "tokenURI",
          "type": "string"
        }
      ],
      "name": "mint",
      "outputs": [
        {
          "internalType": "uint256",
          "name": "",
          "type": "uint256"
        }
      ],
      "stateMutability": "payable",
      "type": "function"
    },
    {
      "inputs": [],
      "name": "mintingFee",
      "outputs": [
        {
          "internalType": "uint256",
          "name": "",
          "type": "uint256"
        }
      ],
      "stateMutability": "view",
      "type": "function"
    },
    {
      "inputs": [],
      "name": "name",
      "outputs": [
        {
          "internalType": "string",
          "name": "",
          "type": "string"
        }
      ],
      "stateMutability": "view",
      "type": "function"
    },
    {
      "inputs": [],
      "name": "owner",
      "outputs": [
        {
          "internalType": "address",
          "name": "",
          "type": "address"
        }
      ],
      "stateMutability": "view",
      "type": "function"
    },
    {
      "inputs": [
        {
          "internalType": "uint256",
          "name": "tokenId",
          "type": "uint256"
        }
      ],
      "name": "ownerOf",
      "outputs": [
        {
          "internalType": "address",
          "name": "",
          "type": "address"
        }
      ],
      "stateMutability": "view",
      "type": "function"
    },
    {
      "inputs": [],
      "name": "renounceOwnership",
      "outputs": [],
      "stateMutability": "nonpayable",
      "type": "function"
    },
    {
      "inputs": [
        {
          "internalType": "address",
          "name": "from",
          "type": "address"
        },
        {
          "internalType": "address",
          "name": "to",
          "type": "address"
        },
        {
          "internalType": "uint256",
          "name": "tokenId",
          "type": "uint256"
        }
      ],
      "name": "safeTransferFrom",
      "outputs": [],
      "stateMutability": "nonpayable",
      "type": "function"
    },
    {
      "inputs": [
        {
          "internalType": "address",
          "name": "from",
          "type": "address"
        },
        {
          "internalType": "address",
          "name": "to",
          "type": "address"
        },
        {
          "internalType": "uint256",
          "name": "tokenId",
          "type": "uint256"
        },
        {
          "internalType": "bytes",
          "name": "data",
          "type": "bytes"
        }
      ],
      "name": "safeTransferFrom",
      "outputs": [],
      "stateMutability": "nonpayable",
      "type": "function"
    },
    {
      "inputs": [
        {
          "internalType": "address",
          "name": "operator",
          "type": "address"
        },
        {
          "internalType": "bool",
          "name": "approved",
          "type": "bool"
        }
      ],
      "name": "setApprovalForAll",
      "outputs": [],
      "stateMutability": "nonpayable",
      "type": "function"
    },
    {
      "inputs": [
        {
          "internalType": "bytes4",
          "name": "interfaceId",
          "type": "bytes4"
        }
      ],
      "name": "supportsInterface",
      "outputs": [
        {
          "internalType": "bool",
          "name": "",
          "type": "bool"
        }
      ],
      "stateMutability": "view",
      "type": "function"
    },
    {
      "inputs": [],
      "name": "symbol",
      "outputs": [
        {
          "internalType": "string",
          "name": "",
          "type": "string"
        }
      ],
      "stateMutability": "view",
      "type": "function"
    },
    {
      "inputs": [
        {
          "internalType": "uint256",
          "name": "tokenId",
          "type": "uint256"
        }
      ],
      "name": "tokenURI",
      "outputs": [
        {
          "internalType": "string",
          "name": "",
          "type": "string"
        }
      ],
      "stateMutability": "view",
      "type": "function"
    },
    {
      "inputs": [
        {
          "internalType": "address",
          "name": "from",
          "type": "address"
        },
        {
          "internalType": "address",
          "name": "to",
          "type": "address"
        },
        {
          "internalType": "uint256",
          "name": "tokenId",
          "type": "uint256"
        }
      ],
      "name": "transferFrom",
      "outputs": [],
      "stateMutability": "nonpayable",
      "type": "function"
    },
    {
      "inputs": [
        {
          "internalType": "address",
          "name": "newOwner",
          "type": "address"
        }
      ],
      "name": "transferOwnership",
      "outputs": [],
      "stateMutability": "nonpayable",
      "type": "function"
    },
    {
      "inputs": [],
      "name": "withdrawFunds",
      "outputs": [],
      "stateMutability": "nonpayable",
      "type": "function"
    }
  ],
  "bytecode": "0x6080604052655af3107a4000600a553480156200001b57600080fd5b506040518060400160405280600f81526020017f47656e6573697347616c6c6572696100000000000000000000000000000000008152506040518060400160405280600281526020017f474700000000000000000000000000000000000000000000000000000000000081525081600090816200009991906200045d565b508060019081620000ab91906200045d565b505050620000ce620000c26200011560201b60201c565b6200011d60201b60201c565b33600960006101000a81548173ffffffffffffffffffffffffffffffffffffffff021916908373ffffffffffffffffffffffffffffffffffffffff16021790555062000544565b600033905090565b6000600760009054906101000a900473ffffffffffffffffffffffffffffffffffffffff16905081600760006101000a81548173ffffffffffffffffffffffffffffffffffffffff021916908373ffffffffffffffffffffffffffffffffffffffff1602179055508173ffffffffffffffffffffffffffffffffffffffff168173ffffffffffffffffffffffffffffffffffffffff167f8be0079c531659141344cd1fd0a4f28419497f9722a3daafe3b4186f6b6457e060405160405180910390a35050565b600081519050919050565b7f4e487b7100000000000000000000000000000000000000000000000000000000600052604160045260246000fd5b7f4e487b7100000000000000000000000000000000000000000000000000000000600052602260045260246000fd5b600060028204905060018216806200026557607f821691505b6020821081036200027b576200027a6200021d565b5b50919050565b60008190508160005260206000209050919050565b60006020601f8301049050919050565b600082821b905092915050565b600060088302620002e57fffffffffffffffffffffffffffffffffffffffffffffffffffffffffffffffff82620002a6565b620002f18683620002a6565b95508019841693508086168417925050509392505050565b6000819050919050565b6000819050919050565b60006200033e62000338620003328462000309565b62000313565b62000309565b9050919050565b6000819050919050565b6200035a836200031d565b62000372620003698262000345565b848454620002b3565b825550505050565b600090565b620003896200037a565b620003968184846200034f565b505050565b5b81811015620003be57620003b26000826200037f565b6001810190506200039c565b5050565b601f8211156200040d57620003d78162000281565b620003e28462000296565b81016020851015620003f2578190505b6200040a620004018562000296565b8301826200039b565b50505b505050565b600082821c905092915050565b6000620004326000198460080262000412565b1980831691505092915050565b60006200044d83836200041f565b9150826002028217905092915050565b6200046882620001e3565b67ffffffffffffffff811115620004845762000483620001ee565b5b6200049082546200024c565b6200049d828285620003c2565b600060209050601f831160018114620004d55760008415620004c0578287015190505b620004cc85826200043f565b8655506200053c565b601f198416620004e58662000281565b60005b828110156200050f57848901518255600182019150602085019450602081019050620004e8565b868310156200052f57848901516200052b601f8916826200041f565b8355505b6001600288020188555050505b505050505050565b61313280620005546000396000f3fe6080604052600436106101145760003560e01c806370a08231116100a0578063b88d4fde11610064578063b88d4fde1461038b578063c87b56dd146103b4578063d85d3d27146103f1578063e985e9c514610421578063f2fde38b1461045e57610114565b806370a08231146102b8578063715018a6146102f55780638da5cb5b1461030c57806395d89b4114610337578063a22cb4651461036257610114565b806323b872dd116100e757806323b872dd146101e757806324600fc31461021057806342842e0e146102275780635a64ad95146102505780636352211e1461027b57610114565b806301ffc9a71461011957806306fdde0314610156578063081812fc14610181578063095ea7b3146101be575b600080fd5b34801561012557600080fd5b50610140600480360381019061013b9190611e38565b610487565b60405161014d9190611e80565b60405180910390f35b34801561016257600080fd5b5061016b6104e8565b6040516101789190611f2b565b60405180910390f35b34801561018d57600080fd5b506101a860048036038101906101a39190611f83565b61057a565b6040516101b59190611ff1565b60405180910390f35b3480156101ca57600080fd5b506101e560048036038101906101e09190612038565b6105c0565b005b3480156101f357600080fd5b5061020e60048036038101906102099190612078565b6106d7565b005b34801561021c57600080fd5b50610225610737565b005b34801561023357600080fd5b5061024e60048036038101906102499190612078565b6107d1565b005b34801561025c57600080fd5b506102656107f1565b60405161027291906120da565b60405180910390f35b34801561028757600080fd5b506102a2600480360381019061029d9190611f83565b6107f7565b6040516102af9190611ff1565b60405180910390f35b3480156102c457600080fd5b506102df60048036038101906102da91906120f5565b61087d565b6040516102ec91906120da565b60405180910390f35b34801561030157600080fd5b5061030a610934565b005b34801561031857600080fd5b50610321610948565b60405161032e9190611ff1565b60405180910390f35b34801561034357600080fd5b5061034c610972565b6040516103599190611f2b565b60405180910390f35b34801561036e57600080fd5b506103896004803603810190610384919061214e565b610a04565b005b34801561039757600080fd5b506103b260048036038101906103ad91906122c3565b610a1a565b005b3480156103c057600080fd5b506103db60048036038101906103d69190611f83565b610a7c565b6040516103e89190611f2b565b60405180910390f35b61040b600480360381019061040691906123e7565b610b8e565b60405161041891906120da565b60405180910390f35b34801561042d57600080fd5b5061044860048036038101906104439190612430565b610c0a565b6040516104559190611e80565b60405180910390f35b34801561046a57600080fd5b50610485600480360381019061048091906120f5565b610c9e565b005b6000634906490660e01b7bffffffffffffffffffffffffffffffffffffffffffffffffffffffff1916827bffffffffffffffffffffffffffffffffffffffffffffffffffffffff191614806104e157506104e082610d21565b5b9050919050565b6060600080546104f79061249f565b80601f01602080910402602001604051908101604052809291908181526020018280546105239061249f565b80156105705780601f1061054557610100808354040283529160200191610570565b820191906000526020600020905b81548152906001019060200180831161055357829003601f168201915b5050505050905090565b600061058582610e03565b6004600083815260200190815260200160002060009054906101000a900473ffffffffffffffffffffffffffffffffffffffff169050919050565b60006105cb826107f7565b90508073ffffffffffffffffffffffffffffffffffffffff168373ffffffffffffffffffffffffffffffffffffffff160361063b576040517f08c379a000000000000000000000000000000000000000000000000000000000815260040161063290612542565b60405180910390fd5b8073ffffffffffffffffffffffffffffffffffffffff1661065a610e4e565b73ffffffffffffffffffffffffffffffffffffffff161480610689575061068881610683610e4e565b610c0a565b5b6106c8576040517f08c379a00000000000000000000000000000000000000000000000000000000081526004016106bf906125d4565b60405180910390fd5b6106d28383610e56565b505050565b6106e86106e2610e4e565b82610f0f565b610727576040517f08c379a000000000000000000000000000000000000000000000000000000000815260040161071e90612666565b60405180910390fd5b610732838383610fa4565b505050565b61073f61129d565b600047905060008111610787576040517f08c379a000000000000000000000000000000000000000000000000000000000815260040161077e906126d2565b60405180910390fd5b3373ffffffffffffffffffffffffffffffffffffffff166108fc829081150290604051600060405180830381858888f193505050501580156107cd573d6000803e3d6000fd5b5050565b6107ec83838360405180602001604052806000815250610a1a565b505050565b600a5481565b6000806108038361131b565b9050600073ffffffffffffffffffffffffffffffffffffffff168173ffffffffffffffffffffffffffffffffffffffff1603610874576040517f08c379a000000000000000000000000000000000000000000000000000000000815260040161086b9061273e565b60405180910390fd5b80915050919050565b60008073ffffffffffffffffffffffffffffffffffffffff168273ffffffffffffffffffffffffffffffffffffffff16036108ed576040517f08c379a00000000000000000000000000000000000000000000000000000000081526004016108e4906127d0565b60405180910390fd5b600360008373ffffffffffffffffffffffffffffffffffffffff1673ffffffffffffffffffffffffffffffffffffffff168152602001908152602001600020549050919050565b61093c61129d565b6109466000611358565b565b6000600760009054906101000a900473ffffffffffffffffffffffffffffffffffffffff16905090565b6060600180546109819061249f565b80601f01602080910402602001604051908101604052809291908181526020018280546109ad9061249f565b80156109fa5780601f106109cf576101008083540402835291602001916109fa565b820191906000526020600020905b8154815290600101906020018083116109dd57829003601f168201915b5050505050905090565b610a16610a0f610e4e565b838361141e565b5050565b610a2b610a25610e4e565b83610f0f565b610a6a576040517f08c379a0000000000000000000000000000000000000000000000000000000008152600401610a6190612666565b60405180910390fd5b610a768484848461158a565b50505050565b6060610a8782610e03565b6000600660008481526020019081526020016000208054610aa79061249f565b80601f0160208091040260200160405190810160405280929190818152602001828054610ad39061249f565b8015610b205780601f10610af557610100808354040283529160200191610b20565b820191906000526020600020905b815481529060010190602001808311610b0357829003601f168201915b505050505090506000610b316115e6565b90506000815103610b46578192505050610b89565b600082511115610b7b578082604051602001610b6392919061282c565b60405160208183030381529060405292505050610b89565b610b84846115fd565b925050505b919050565b6000600a54341015610bd5576040517f08c379a0000000000000000000000000000000000000000000000000000000008152600401610bcc906128c2565b60405180910390fd5b610bdf6008611665565b6000610beb600861167b565b9050610bf73382611689565b610c0181846118a6565b80915050919050565b6000600560008473ffffffffffffffffffffffffffffffffffffffff1673ffffffffffffffffffffffffffffffffffffffff16815260200190815260200160002060008373ffffffffffffffffffffffffffffffffffffffff1673ffffffffffffffffffffffffffffffffffffffff16815260200190815260200160002060009054906101000a900460ff16905092915050565b610ca661129d565b600073ffffffffffffffffffffffffffffffffffffffff168173ffffffffffffffffffffffffffffffffffffffff1603610d15576040517f08c379a0000000000000000000000000000000000000000000000000000000008152600401610d0c90612954565b60405180910390fd5b610d1e81611358565b50565b60007f80ac58cd000000000000000000000000000000000000000000000000000000007bffffffffffffffffffffffffffffffffffffffffffffffffffffffff1916827bffffffffffffffffffffffffffffffffffffffffffffffffffffffff19161480610dec57507f5b5e139f000000000000000000000000000000000000000000000000000000007bffffffffffffffffffffffffffffffffffffffffffffffffffffffff1916827bffffffffffffffffffffffffffffffffffffffffffffffffffffffff1916145b80610dfc5750610dfb8261194a565b5b9050919050565b610e0c816119b4565b610e4b576040517f08c379a0000000000000000000000000000000000000000000000000000000008152600401610e429061273e565b60405180910390fd5b50565b600033905090565b816004600083815260200190815260200160002060006101000a81548173ffffffffffffffffffffffffffffffffffffffff021916908373ffffffffffffffffffffffffffffffffffffffff160217905550808273ffffffffffffffffffffffffffffffffffffffff16610ec9836107f7565b73ffffffffffffffffffffffffffffffffffffffff167f8c5be1e5ebec7d5bd14f71427d1e84f3dd0314c0f7b2291e5b200ac8c7c3b92560405160405180910390a45050565b600080610f1b836107f7565b90508073ffffffffffffffffffffffffffffffffffffffff168473ffffffffffffffffffffffffffffffffffffffff161480610f5d5750610f5c8185610c0a565b5b80610f9b57508373ffffffffffffffffffffffffffffffffffffffff16610f838461057a565b73ffffffffffffffffffffffffffffffffffffffff16145b91505092915050565b8273ffffffffffffffffffffffffffffffffffffffff16610fc4826107f7565b73ffffffffffffffffffffffffffffffffffffffff161461101a576040517f08c379a0000000000000000000000000000000000000000000000000000000008152600401611011906129e6565b60405180910390fd5b600073ffffffffffffffffffffffffffffffffffffffff168273ffffffffffffffffffffffffffffffffffffffff1603611089576040517f08c379a000000000000000000000000000000000000000000000000000000000815260040161108090612a78565b60405180910390fd5b61109683838360016119f5565b8273ffffffffffffffffffffffffffffffffffffffff166110b6826107f7565b73ffffffffffffffffffffffffffffffffffffffff161461110c576040517f08c379a0000000000000000000000000000000000000000000000000000000008152600401611103906129e6565b60405180910390fd5b6004600082815260200190815260200160002060006101000a81549073ffffffffffffffffffffffffffffffffffffffff02191690556001600360008573ffffffffffffffffffffffffffffffffffffffff1673ffffffffffffffffffffffffffffffffffffffff168152602001908152602001600020600082825403925050819055506001600360008473ffffffffffffffffffffffffffffffffffffffff1673ffffffffffffffffffffffffffffffffffffffff16815260200190815260200160002060008282540192505081905550816002600083815260200190815260200160002060006101000a81548173ffffffffffffffffffffffffffffffffffffffff021916908373ffffffffffffffffffffffffffffffffffffffff160217905550808273ffffffffffffffffffffffffffffffffffffffff168473ffffffffffffffffffffffffffffffffffffffff167fddf252ad1be2c89b69c2b068fc378daa952ba7f163c4a11628f55a4df523b3ef60405160405180910390a461129883838360016119fb565b505050565b6112a5610e4e565b73ffffffffffffffffffffffffffffffffffffffff166112c3610948565b73ffffffffffffffffffffffffffffffffffffffff1614611319576040517f08c379a000000000000000000000000000000000000000000000000000000000815260040161131090612ae4565b60405180910390fd5b565b60006002600083815260200190815260200160002060009054906101000a900473ffffffffffffffffffffffffffffffffffffffff169050919050565b6000600760009054906101000a900473ffffffffffffffffffffffffffffffffffffffff16905081600760006101000a81548173ffffffffffffffffffffffffffffffffffffffff021916908373ffffffffffffffffffffffffffffffffffffffff1602179055508173ffffffffffffffffffffffffffffffffffffffff168173ffffffffffffffffffffffffffffffffffffffff167f8be0079c531659141344cd1fd0a4f28419497f9722a3daafe3b4186f6b6457e060405160405180910390a35050565b8173ffffffffffffffffffffffffffffffffffffffff168373ffffffffffffffffffffffffffffffffffffffff160361148c576040517f08c379a000000000000000000000000000000000000000000000000000000000815260040161148390612b50565b60405180910390fd5b80600560008573ffffffffffffffffffffffffffffffffffffffff1673ffffffffffffffffffffffffffffffffffffffff16815260200190815260200160002060008473ffffffffffffffffffffffffffffffffffffffff1673ffffffffffffffffffffffffffffffffffffffff16815260200190815260200160002060006101000a81548160ff0219169083151502179055508173ffffffffffffffffffffffffffffffffffffffff168373ffffffffffffffffffffffffffffffffffffffff167f17307eab39ab6107e8899845ad3d59bd9653f200f220920489ca2b5937696c318360405161157d9190611e80565b60405180910390a3505050565b611595848484610fa4565b6115a184848484611a01565b6115e0576040517f08c379a00000000000000000000000000000000000000000000000000000000081526004016115d790612be2565b60405180910390fd5b50505050565b606060405180602001604052806000815250905090565b606061160882610e03565b60006116126115e6565b90506000815111611632576040518060200160405280600081525061165d565b8061163c84611b88565b60405160200161164d92919061282c565b6040516020818303038152906040525b915050919050565b6001816000016000828254019250508190555050565b600081600001549050919050565b600073ffffffffffffffffffffffffffffffffffffffff168273ffffffffffffffffffffffffffffffffffffffff16036116f8576040517f08c379a00000000000000000000000000000000000000000000000000000000081526004016116ef90612c4e565b60405180910390fd5b611701816119b4565b15611741576040517f08c379a000000000000000000000000000000000000000000000000000000000815260040161173890612cba565b60405180910390fd5b61174f6000838360016119f5565b611758816119b4565b15611798576040517f08c379a000000000000000000000000000000000000000000000000000000000815260040161178f90612cba565b60405180910390fd5b6001600360008473ffffffffffffffffffffffffffffffffffffffff1673ffffffffffffffffffffffffffffffffffffffff16815260200190815260200160002060008282540192505081905550816002600083815260200190815260200160002060006101000a81548173ffffffffffffffffffffffffffffffffffffffff021916908373ffffffffffffffffffffffffffffffffffffffff160217905550808273ffffffffffffffffffffffffffffffffffffffff16600073ffffffffffffffffffffffffffffffffffffffff167fddf252ad1be2c89b69c2b068fc378daa952ba7f163c4a11628f55a4df523b3ef60405160405180910390a46118a26000838360016119fb565b5050565b6118af826119b4565b6118ee576040517f08c379a00000000000000000000000000000000000000000000000000000000081526004016118e590612d4c565b60405180910390fd5b8060066000848152602001908152602001600020908161190e9190612f18565b507ff8e1a15aba9398e019f0b49df1a4fde98ee17ae345cb5f6b5e2c27f5033e8ce78260405161193e91906120da565b60405180910390a15050565b60007f01ffc9a7000000000000000000000000000000000000000000000000000000007bffffffffffffffffffffffffffffffffffffffffffffffffffffffff1916827bffffffffffffffffffffffffffffffffffffffffffffffffffffffff1916149050919050565b60008073ffffffffffffffffffffffffffffffffffffffff166119d68361131b565b73ffffffffffffffffffffffffffffffffffffffff1614159050919050565b50505050565b50505050565b6000611a228473ffffffffffffffffffffffffffffffffffffffff16611c56565b15611b7b578373ffffffffffffffffffffffffffffffffffffffff1663150b7a02611a4b610e4e565b8786866040518563ffffffff1660e01b8152600401611a6d949392919061303f565b6020604051808303816000875af1925050508015611aa957506040513d601f19601f82011682018060405250810190611aa691906130a0565b60015b611b2b573d8060008114611ad9576040519150601f19603f3d011682016040523d82523d6000602084013e611ade565b606091505b506000815103611b23576040517f08c379a0000000000000000000000000000000000000000000000000000000008152600401611b1a90612be2565b60405180910390fd5b805181602001fd5b63150b7a0260e01b7bffffffffffffffffffffffffffffffffffffffffffffffffffffffff1916817bffffffffffffffffffffffffffffffffffffffffffffffffffffffff191614915050611b80565b600190505b949350505050565b606060006001611b9784611c79565b01905060008167ffffffffffffffff811115611bb657611bb5612198565b5b6040519080825280601f01601f191660200182016040528015611be85781602001600182028036833780820191505090505b509050600082602001820190505b600115611c4b578080600190039150507f3031323334353637383961626364656600000000000000000000000000000000600a86061a8153600a8581611c3f57611c3e6130cd565b5b04945060008503611bf6575b819350505050919050565b6000808273ffffffffffffffffffffffffffffffffffffffff163b119050919050565b600080600090507a184f03e93ff9f4daa797ed6e38ed64bf6a1f0100000000000000008310611cd7577a184f03e93ff9f4daa797ed6e38ed64bf6a1f0100000000000000008381611ccd57611ccc6130cd565b5b0492506040810190505b6d04ee2d6d415b85acef81000000008310611d14576d04ee2d6d415b85acef81000000008381611d0a57611d096130cd565b5b0492506020810190505b662386f26fc100008310611d4357662386f26fc100008381611d3957611d386130cd565b5b0492506010810190505b6305f5e1008310611d6c576305f5e1008381611d6257611d616130cd565b5b0492506008810190505b6127108310611d91576127108381611d8757611d866130cd565b5b0492506004810190505b60648310611db45760648381611daa57611da96130cd565b5b0492506002810190505b600a8310611dc3576001810190505b80915050919050565b6000604051905090565b600080fd5b600080fd5b60007fffffffff0000000000000000000000000000000000000000000000000000000082169050919050565b611e1581611de0565b8114611e2057600080fd5b50565b600081359050611e3281611e0c565b92915050565b600060208284031215611e4e57611e4d611dd6565b5b6000611e5c84828501611e23565b91505092915050565b60008115159050919050565b611e7a81611e65565b82525050565b6000602082019050611e956000830184611e71565b92915050565b600081519050919050565b600082825260208201905092915050565b60005b83811015611ed5578082015181840152602081019050611eba565b60008484015250505050565b6000601f19601f8301169050919050565b6000611efd82611e9b565b611f078185611ea6565b9350611f17818560208601611eb7565b611f2081611ee1565b840191505092915050565b60006020820190508181036000830152611f458184611ef2565b905092915050565b6000819050919050565b611f6081611f4d565b8114611f6b57600080fd5b50565b600081359050611f7d81611f57565b92915050565b600060208284031215611f9957611f98611dd6565b5b6000611fa784828501611f6e565b91505092915050565b600073ffffffffffffffffffffffffffffffffffffffff82169050919050565b6000611fdb82611fb0565b9050919050565b611feb81611fd0565b82525050565b60006020820190506120066000830184611fe2565b92915050565b61201581611fd0565b811461202057600080fd5b50565b6000813590506120328161200c565b92915050565b6000806040838503121561204f5761204e611dd6565b5b600061205d85828601612023565b925050602061206e85828601611f6e565b9150509250929050565b60008060006060848603121561209157612090611dd6565b5b600061209f86828701612023565b93505060206120b086828701612023565b92505060406120c186828701611f6e565b9150509250925092565b6120d481611f4d565b82525050565b60006020820190506120ef60008301846120cb565b92915050565b60006020828403121561210b5761210a611dd6565b5b600061211984828501612023565b91505092915050565b61212b81611e65565b811461213657600080fd5b50565b60008135905061214881612122565b92915050565b6000806040838503121561216557612164611dd6565b5b600061217385828601612023565b925050602061218485828601612139565b9150509250929050565b600080fd5b600080fd5b7f4e487b7100000000000000000000000000000000000000000000000000000000600052604160045260246000fd5b6121d082611ee1565b810181811067ffffffffffffffff821117156121ef576121ee612198565b5b80604052505050565b6000612202611dcc565b905061220e82826121c7565b919050565b600067ffffffffffffffff82111561222e5761222d612198565b5b61223782611ee1565b9050602081019050919050565b82818337600083830152505050565b600061226661226184612213565b6121f8565b90508281526020810184848401111561228257612281612193565b5b61228d848285612244565b509392505050565b600082601f8301126122aa576122a961218e565b5b81356122ba848260208601612253565b91505092915050565b600080600080608085870312156122dd576122dc611dd6565b5b60006122eb87828801612023565b94505060206122fc87828801612023565b935050604061230d87828801611f6e565b925050606085013567ffffffffffffffff81111561232e5761232d611ddb565b5b61233a87828801612295565b91505092959194509250565b600067ffffffffffffffff82111561236157612360612198565b5b61236a82611ee1565b9050602081019050919050565b600061238a61238584612346565b6121f8565b9050828152602081018484840111156123a6576123a5612193565b5b6123b1848285612244565b509392505050565b600082601f8301126123ce576123cd61218e565b5b81356123de848260208601612377565b91505092915050565b6000602082840312156123fd576123fc611dd6565b5b600082013567ffffffffffffffff81111561241b5761241a611ddb565b5b612427848285016123b9565b91505092915050565b6000806040838503121561244757612446611dd6565b5b600061245585828601612023565b925050602061246685828601612023565b9150509250929050565b7f4e487b7100000000000000000000000000000000000000000000000000000000600052602260045260246000fd5b600060028204905060018216806124b757607f821691505b6020821081036124ca576124c9612470565b5b50919050565b7f4552433732313a20617070726f76616c20746f2063757272656e74206f776e6560008201527f7200000000000000000000000000000000000000000000000000000000000000602082015250565b600061252c602183611ea6565b9150612537826124d0565b604082019050919050565b6000602082019050818103600083015261255b8161251f565b9050919050565b7f4552433732313a20617070726f76652063616c6c6572206973206e6f7420746f60008201527f6b656e206f776e6572206f7220617070726f76656420666f7220616c6c000000602082015250565b60006125be603d83611ea6565b91506125c982612562565b604082019050919050565b600060208201905081810360008301526125ed816125b1565b9050919050565b7f4552433732313a2063616c6c6572206973206e6f7420746f6b656e206f776e6560008201527f72206f7220617070726f76656400000000000000000000000000000000000000602082015250565b6000612650602d83611ea6565b915061265b826125f4565b604082019050919050565b6000602082019050818103600083015261267f81612643565b9050919050565b7f47656e6573697347616c6c657269613a2042616c616e6365206973207a65726f600082015250565b60006126bc602083611ea6565b91506126c782612686565b602082019050919050565b600060208201905081810360008301526126eb816126af565b9050919050565b7f4552433732313a20696e76616c696420746f6b656e2049440000000000000000600082015250565b6000612728601883611ea6565b9150612733826126f2565b602082019050919050565b600060208201905081810360008301526127578161271b565b9050919050565b7f4552433732313a2061646472657373207a65726f206973206e6f74206120766160008201527f6c6964206f776e65720000000000000000000000000000000000000000000000602082015250565b60006127ba602983611ea6565b91506127c58261275e565b604082019050919050565b600060208201905081810360008301526127e9816127ad565b9050919050565b600081905092915050565b600061280682611e9b565b61281081856127f0565b9350612820818560208601611eb7565b80840191505092915050565b600061283882856127fb565b915061284482846127fb565b91508190509392505050565b7f47656e6573697347616c6c657269613a20496e73756666696369656e74206d6960008201527f6e74696e67206665650000000000000000000000000000000000000000000000602082015250565b60006128ac602983611ea6565b91506128b782612850565b604082019050919050565b600060208201905081810360008301526128db8161289f565b9050919050565b7f4f776e61626c653a206e6577206f776e657220697320746865207a65726f206160008201527f6464726573730000000000000000000000000000000000000000000000000000602082015250565b600061293e602683611ea6565b9150612949826128e2565b604082019050919050565b6000602082019050818103600083015261296d81612931565b9050919050565b7f4552433732313a207472616e736665722066726f6d20696e636f72726563742060008201527f6f776e6572000000000000000000000000000000000000000000000000000000602082015250565b60006129d0602583611ea6565b91506129db82612974565b604082019050919050565b600060208201905081810360008301526129ff816129c3565b9050919050565b7f4552433732313a207472616e7366657220746f20746865207a65726f2061646460008201527f7265737300000000000000000000000000000000000000000000000000000000602082015250565b6000612a62602483611ea6565b9150612a6d82612a06565b604082019050919050565b60006020820190508181036000830152612a9181612a55565b9050919050565b7f4f776e61626c653a2063616c6c6572206973206e6f7420746865206f776e6572600082015250565b6000612ace602083611ea6565b9150612ad982612a98565b602082019050919050565b60006020820190508181036000830152612afd81612ac1565b9050919050565b7f4552433732313a20617070726f766520746f2063616c6c657200000000000000600082015250565b6000612b3a601983611ea6565b9150612b4582612b04565b602082019050919050565b60006020820190508181036000830152612b6981612b2d565b9050919050565b7f4552433732313a207472616e7366657220746f206e6f6e20455243373231526560008201527f63656976657220696d706c656d656e7465720000000000000000000000000000602082015250565b6000612bcc603283611ea6565b9150612bd782612b70565b604082019050919050565b60006020820190508181036000830152612bfb81612bbf565b9050919050565b7f4552433732313a206d696e7420746f20746865207a65726f2061646472657373600082015250565b6000612c38602083611ea6565b9150612c4382612c02565b602082019050919050565b60006020820190508181036000830152612c6781612c2b565b9050919050565b7f4552433732313a20746f6b656e20616c7265616479206d696e74656400000000600082015250565b6000612ca4601c83611ea6565b9150612caf82612c6e565b602082019050919050565b60006020820190508181036000830152612cd381612c97565b9050919050565b7f45524337323155524953746f726167653a2055524920736574206f66206e6f6e60008201527f6578697374656e7420746f6b656e000000000000000000000000000000000000602082015250565b6000612d36602e83611ea6565b9150612d4182612cda565b604082019050919050565b60006020820190508181036000830152612d6581612d29565b9050919050565b60008190508160005260206000209050919050565b60006020601f8301049050919050565b600082821b905092915050565b600060088302612dce7fffffffffffffffffffffffffffffffffffffffffffffffffffffffffffffffff82612d91565b612dd88683612d91565b95508019841693508086168417925050509392505050565b6000819050919050565b6000612e15612e10612e0b84611f4d565b612df0565b611f4d565b9050919050565b6000819050919050565b612e2f83612dfa565b612e43612e3b82612e1c565b848454612d9e565b825550505050565b600090565b612e58612e4b565b612e63818484612e26565b505050565b5b81811015612e8757612e7c600082612e50565b600181019050612e69565b5050565b601f821115612ecc57612e9d81612d6c565b612ea684612d81565b81016020851015612eb5578190505b612ec9612ec185612d81565b830182612e68565b50505b505050565b600082821c905092915050565b6000612eef60001984600802612ed1565b1980831691505092915050565b6000612f088383612ede565b9150826002028217905092915050565b612f2182611e9b565b67ffffffffffffffff811115612f3a57612f39612198565b5b612f44825461249f565b612f4f828285612e8b565b600060209050601f831160018114612f825760008415612f70578287015190505b612f7a8582612efc565b865550612fe2565b601f198416612f9086612d6c565b60005b82811015612fb857848901518255600182019150602085019450602081019050612f93565b86831015612fd55784890151612fd1601f891682612ede565b8355505b6001600288020188555050505b505050505050565b600081519050919050565b600082825260208201905092915050565b600061301182612fea565b61301b8185612ff5565b935061302b818560208601611eb7565b61303481611ee1565b840191505092915050565b60006080820190506130546000830187611fe2565b6130616020830186611fe2565b61306e60408301856120cb565b81810360608301526130808184613006565b905095945050505050565b60008151905061309a81611e0c565b92915050565b6000602082840312156130b6576130b5611dd6565b5b60006130c48482850161308b565b91505092915050565b7f4e487b7100000000000000000000000000000000000000000000000000000000600052601260045260246000fdfea2646970667358221220ef729ca154c004380132bec954efbf7fd5d76a6ea7f4d99b01c140ae03ed047d64736f6c63430008180033",
  "linkReferences": {},
  "deployedLinkReferences": {}
}